:0400000051EF00F0CC
:100008005A82FACF01F0FBCF02F0D9CF03F0DACF52
:1000180004F09DAA12EF00F014EF00F02BEF00F0AF
:100028009EAA19EF00F01BEF00F02BEF00F002D8AA
:1000380029EF00F005000001FA6EEE51FD6EEF5158
:10004800FE6EF850FF6EFA50120047EF00F09DA8C0
:1000580030EF00F032EF00F047EF00F09EA837EFE6
:1000680000F039EF00F047EF00F002D847EF00F05A
:1000780005000001FA6EF051FD6EF151FE6EF85068
:10008800FF6EFA50120004C0DAFF03C0D9FF02C0A5
:0E009800FBFF01C0FAFF5A92110046EF20F064
:1008000000B4468C467C46C835323AA8467C3C3417
:10081000472C4724471C4714470C4704479C46581D
:100820003E0000E63F00000000CA461638D44600ED
:1008300000EA41743D5265636569766520746573AD
:10084000743A20547970652061206D657373616717
:1008500065207468656E20707265737320656E74B0
:10086000657220286D61782031362063686172736B
:10087000293A0048656C6C6F20576F726C642120B8
:1008800025640A005472616E736D69742074657317
:10089000740A00596F752074797065643A200025D8
:1008A000660D0A00494E46004E414E00696E6600D4
:0F08B0006E616E000A6F6B006C660025630000BE
:1008C000000E0001896F000E886F6AC09AF06BC03D
:1008D0009BF06CC09CF06DC09DF09DBF74EF04F068
:1008E00072EF04F08AEF04F0000E896F010E886F3A
:1008F0009AC005F09BC006F09CC007F09DC008F0B0
:10090000B1EC21F005C09AF006C09BF007C09CF046
:1009100008C09DF0000E0001A16F000EA06FE4C0A2
:100920008CF0E5C08DF088518911D8A49AEF04F0BD
:100930009CEF04F0A3EF04F055A4A1EF04F0A3EFA3
:1009400004F0BDEF04F088518911D8A4AAEF04F097
:10095000ACEF04F0B2EF04F0000E756F2B0E746F65
:10096000B6EF04F0000E756F2D0E746F74C034F185
:10097000A04BA12B8C07D8A08D079AC005F09BC077
:1009800006F09CC007F09DC008F08FEC19F005043C
:100990000610D8A4CEEF04F0D0EF04F01AEF05F063
:1009A000BF0E00016F6FFF0E706F6E51716F726B33
:1009B0006F51712770517223725107E11A0E715DE8
:1009C000D8B0E5EF04F0E7EF04F0F5EF04F0340EF3
:1009D000A025056E010EA121066EA40E076E080E5D
:1009E000086EC5EC1FF001EF05F0340EA025056E72
:1009F000010EA121066EAC0E076E080E086EC5EC46
:100A00001FF00001FD0E8C27FF0E8D2368C017F02C
:100A100069C018F0340E196E010E1A6E8CC01BF0EE
:100A20008DC01CF0AAEC1BF017C068F018C069F06C
:100A30008CEF0AF09AC005F09BC006F09CC007F04E
:100A40009DC008F08FEC19F005500610D8A42BEFCC
:100A500005F02DEF05F077EF05F0BF0E00016F6F89
:100A6000FF0E706F6E51716F726B6F517127705105
:100A70007223725107E11A0E715DD8B042EF05F092
:100A800044EF05F052EF05F0340EA025056E010E7F
:100A9000A121066EA80E076E080E086EC5EC1FF0A9
:100AA0005EEF05F0340EA025056E010EA121066E45
:100AB000B00E076E080E086EC5EC1FF00001FD0EAB
:100AC0008C27FF0E8D2368C017F069C018F0340E14
:100AD000196E010E1A6E8CC01BF08DC01CF0AAECB2
:100AE0001BF017C068F018C069F08CEF0AF0000E18
:100AF0000001A26F000EA36F800EA46F3F0EA56FC2
:100B0000000E9F6F000E9E6F9AC005F09BC006F00E
:100B10009CC007F09DC008F0000E096E000E0A6E22
:100B2000000E0B6E000E0C6EC4EC1CF0D8B09BEFE8
:100B300005F09DEF05F020EF06F0BCEF05F0A2C038
:100B40002CF0A3C02DF0A4C02EF0A5C02FF0000EF5
:100B5000306E000E316E200E326E410E336E38EC68
:100B60000FF02CC0A2F02DC0A3F02EC0A4F02FC017
:100B7000A5F000019E4B9F2B9AC045F09BC046F00C
:100B80009CC047F09DC048F0000E306E000E316EE4
:100B9000200E326E410E336EA2C02CF0A3C02DF099
:100BA000A4C02EF0A5C02FF038EC0FF02CC049F0F7
:100BB0002DC04AF02EC04BF02FC04CF00DEC19F0B8
:100BC000D8B0E5EF05F0E7EF05F09FEF05F007EF90
:100BD00006F0A2C013F0A3C014F0A4C015F0A5C085
:100BE00016F0000E176E000E186E200E196E410ED4
:100BF0001A6E4DEC11F013C0A2F014C0A3F015C092
:100C0000A4F016C0A5F000019E07D8A09F079AC0C7
:100C100045F09BC046F09CC047F09DC048F0A2C084
:100C200049F0A3C04AF0A4C04BF0A5C04CF00DECB5
:100C300019F0D8A01EEF06F020EF06F0E9EF05F05E
:100C40006EC00BF00C6A8EEC20F00B5000018F6F21
:100C50008FC08EF0670E8F19D8A431EF06F033EFF6
:100C600006F059EF06F0E651E711D8A43AEF06F086
:100C70003CEF06F040EF06F0000EE76F010EE66F66
:100C8000E7BF4DEF06F0E75106E1E605D8B04BEFC0
:100C900006F04DEF06F053EF06F0000E8B6F060ED8
:100CA0008A6F62EF06F0E6C08AF0E7C08BF062EF71
:100CB00006F0E7BF5EEF06F060EF06F04DEF06F0DE
:100CC00053EF06F0670E8F19D8A469EF06F06BEFAB
:100CD00006F09AEF06F09FAF79EF06F0FC0E9E5DEE
:100CE000FF0E9F59D8A077EF06F079EF06F098EF46
:100CF00006F0FF0E6F6FFF0E706F8AC071F08BC031
:100D000072F06F517127705172239E51715D725153
:100D1000800A736F9F51800A7359D8A092EF06F032
:100D200094EF06F098EF06F0660E8E6F9AEF06F0DD
:100D3000650E8E6F8AC080F08BC081F0670E8F19B0
:100D4000D8A4A5EF06F0A7EF06F0B7EF06F0660E01
:100D50008E19D8A4AEEF06F0B0EF06F0B9EF06F0AA
:100D60009FBFB7EF06F0B5EF06F0B9EF06F0804B86
:100D7000812B660E8E19D8A4C0EF06F0C2EF06F0E4
:100D8000E2EF06F09FBFC9EF06F0C7EF06F0D5EF20
:100D900006F0000EA26F000EA36F800EA46F3F0E30
:100DA000A56F000E9F6F000E9E6F670E8F19D8B44F
:100DB000DCEF06F0DEEF06F0E2EF06F09E51802752
:100DC0009F518123000E996F000E986F9AC090F08A
:100DD0009BC091F09CC092F09DC093F0A2C082F0A5
:100DE000A3C083F0A4C084F0A5C085F073EF07F022
:100DF00090C013F091C014F092C015F093C016F09B
:100E0000A2C017F0A3C018F0A4C019F0A5C01AF032
:100E10004DEC11F013C02CF014C02DF015C02EF0C5
:100E200016C02FF08AEC14F02CC094F02DC095F071
:100E30002EC096F02FC097F094C005F095C006F034
:100E400096C007F097C008F08AEC18F005C086F04D
:100E500006C087F090C060F091C061F092C062F06F
:100E600093C063F0A2C030F0A3C031F0A4C032F050
:100E7000A5C033F094C02CF095C02DF096C02EF094
:100E800097C02FF038EC0FF02CC064F02DC065F047
:100E90002EC066F02FC067F06AEC20F060C090F0C2
:100EA00061C091F062C092F063C093F0A2C013F0F1
:100EB000A3C014F0A4C015F0A5C016F0000E176E64
:100EC000000E186E200E196E410E1A6E4DEC11F0C8
:100ED00013C0A2F014C0A3F015C0A4F016C0A5F072
:100EE0000001984B992B8051985D9951800A6F6F42
:100EF0008151800A6F59D8A080EF07F082EF07F088
:100F0000F8EF06F0A2C02CF0A3C02DF0A4C02EF084
:100F1000A5C02FF0000E306E000E316EA00E326EA6
:100F2000400E336E38EC0FF02CC094F02DC095F0CD
:100F30002EC096F02FC097F090C045F091C046F0BB
:100F400092C047F093C048F094C049F095C04AF071
:100F500096C04BF097C04CF00DEC19F0D8B0B3EF41
:100F600007F0B5EF07F0C0EF07F0000E0001946F37
:100F7000000E956F000E966F000E976FE9EF07F069
:100F800090C005F091C006F092C007F093C008F041
:100F900094C009F095C00AF096C00BF097C00CF011
:100FA000C4EC1CF0D8A0D7EF07F0D9EF07F0E9EFB9
:100FB00007F0000186B1DFEF07F0E1EF07F0E9EF9E
:100FC00007F0000E946F000E956F000E966F000EE6
:100FD000976F9AC045F09BC046F09CC047F09DC0FB
:100FE00048F094C049F095C04AF096C04BF097C0C5
:100FF0004CF08DEC0AF045C090F046C091F047C02F
:1010000092F048C093F090C045F091C046F092C075
:1010100047F093C048F0000E306E000E316E200E87
:10102000326E410E336E82C02CF083C02DF084C02E
:101030002EF085C02FF038EC0FF02CC049F02DC0F9
:101040004AF02EC04BF02FC04CF00DEC19F0D8A098
:101050002CEF08F02EEF08F057EF08F000019E4B40
:101060009F2B82C02CF083C02DF084C02EF085C051
:101070002FF0000E306E000E316E200E326E410EDB
:10108000336E38EC0FF02CC082F02DC083F02EC0F0
:1010900084F02FC085F0660E00018E19D8A453EF9E
:1010A00008F055EF08F057EF08F0804B812B82C015
:1010B000A2F083C0A3F084C0A4F085C0A5F0650EA3
:1010C00000018E19D8B467EF08F069EF08F06FEFF0
:1010D00008F09EC07EF09FC07FF073EF08F0000E16
:1010E0007F6F000E7E6F000E7D6F000E7C6F000E16
:1010F0007B6F000E7A6F000E996F000E986F6FEF86
:1011000009F090C013F091C014F092C015F093C094
:1011100016F0A2C017F0A3C018F0A4C019F0A5C023
:101120001AF04DEC11F013C02CF014C02DF015C0C6
:101130002EF016C02FF08AEC14F02CC094F02DC0C5
:1011400095F02EC096F02FC097F094C005F095C092
:1011500006F096C007F097C008F08AEC18F005C0BA
:1011600086F006C087F055B8B8EF08F0BAEF08F07F
:10117000D8EF08F0000186518711D8A4C2EF08F01B
:10118000C4EF08F0D8EF08F0670E8F19D8A4CBEFA2
:1011900008F0CDEF08F0D8EF08F07FBFD4EF08F0EB
:1011A000D2EF08F0D8EF08F07A4B7B2B23EF09F051
:1011B00000017C517D11D8A4E0EF08F0E2EF08F0C7
:1011C0000CEF09F07FBFE9EF08F0E7EF08F00CEF54
:1011D00009F0340EA025D96E010EA121DA6E2E0E73
:1011E000DF6EA04BA12B8C07D8A08D07000E7D6F62
:1011F000010E7C6F0CEF09F0340EA025D96E010EA4
:10120000A121DA6E300EDF6EA04BA12B8C07D8A087
:101210008D077A07D8A07B077A517B11D8A413EFEA
:1012200009F015EF09F0FCEF08F0340EA025D96E97
:10123000010EA121DA6E8651300FDF6EA04BA12B7B
:101240008C07D8A08D0790C060F091C061F092C06B
:1012500062F093C063F0A2C030F0A3C031F0A4C02C
:1012600032F0A5C033F094C02CF095C02DF096C09C
:101270002EF097C02FF038EC0FF02CC064F02DC08A
:1012800065F02EC066F02FC067F06AEC20F060C0F9
:1012900090F061C091F062C092F063C093F0A2C080
:1012A00013F0A3C014F0A4C015F0A5C016F0000EF2
:1012B000176E000E186E200E196E410E1A6E4DEC50
:1012C00011F013C0A2F014C0A3F015C0A4F016C012
:1012D000A5F000017E07D8A07F07984B992B80517D
:1012E000985D9951800A6F6F8151800A6F59D8B00B
:1012F0007CEF09F07EEF09F08CEF09F0A1BF8AEFD7
:1013000009F0A15109E14B0EA05DD8A08AEF09F0C8
:101310008CEF09F081EF08F07C517D11D8A493EF98
:1013200009F095EF09F0A6EF09F055A89AEF09F03A
:101330009CEF09F0A6EF09F0340EA025D96E010E3E
:10134000A121DA6E2E0EDF6EA04BA12B340EA0254C
:10135000D96E010EA121DA6E000EDF6E650E8E19B8
:10136000D8A4B5EF09F0B7EF09F07AEF0AF0000E54
:10137000996F4F0E986F340E9825D96E010E9921F2
:10138000DA6E000EDF6E000E896F000E886F9FBF51
:10139000CEEF09F0CCEF09F0D6EF09F0000E896F1F
:1013A000010E886F9E6D9F1FD8B09F2B000E8B6F14
:1013B000020E8A6F07EF0AF09807D8A09907340E3B
:1013C0009825D96E010E9921DA6E9EC005F09FC056
:1013D00006F0000E086E0A0E076E6CEC1CF005504D
:1013E000300FDF6E9EC005F09FC006F0000E086E45
:1013F0000A0E076E48EC1BF005C09EF006C09FF079
:1014000000018A07D8A08B078C07D8A08D079E51B2
:101410009F11D8A40EEF0AF010EF0AF0DCEF09F0EC
:101420008BBF1DEF0AF08B5106E18A05D8B01BEF88
:101430000AF01DEF0AF0DCEF09F09807D8A0990731
:1014400088518911D8A427EF0AF029EF0AF02FEF6D
:101450000AF0000E776F2B0E766F33EF0AF0000E56
:10146000776F2D0E766F340E9825D96E010E992167
:10147000DA6E76C0DFFF8C07D8A08D079807D8A05A
:101480009907BF0E6F6FFF0E706F6E51716F726BA9
:101490006F51712770517223725109E11A0E715DFB
:1014A000D8A055EF0AF057EF0AF05DEF0AF0000EF2
:1014B000796F650E786F61EF0AF0000E796F450E57
:1014C000786F340E9825D96E010E9921DA6E78C0A6
:1014D000DFFF8C07D8A08D07340EA025056E010E06
:1014E000A121066E340E9825076E010E9921086E13
:1014F000C5EC1FF068C017F069C018F0340E196E03
:10150000010E1A6E8CC01BF08DC01CF0AAEC1BF0F3
:1015100017C068F018C069F012004850800B516E77
:1015200048504824536E47AE98EF0AF09AEF0AF0FD
:101530009BEF0AF053805350D8B4A1EF0AF0A3EF09
:101540000AF0B8EF0AF05328D8A4A9EF0AF0ABEFDD
:101550000AF0B3EF0AF0000E456E000E466E000E64
:10156000476E000E486E478E000E486EC0EF0AF0C0
:10157000000E456E000E466E000E476E000E486E61
:101580004C50800B526E51505218D8B4CAEF0AF02A
:10159000CCEF0AF0CDEF0AF0518C4C504C24526E37
:1015A0004BAED5EF0AF0D7EF0AF0D8EF0AF0528031
:1015B0005250D8B4DEEF0AF0E0EF0AF0F5EF0AF08F
:1015C0005228D8A4E6EF0AF0E8EF0AF0F0EF0AF0AC
:1015D000000E496E000E4A6E000E4B6E000E4C6EF1
:1015E0004B8E000E4C6EFDEF0AF0000E496E000EA1
:1015F0004A6E000E4B6E000E4C6E5350525CD8B0CB
:1016000004EF0BF006EF0BF02DEF0BF051AC0BEFEE
:101610000BF00DEF0BF00FEF0BF0800E511A53C0D3
:1016200054F052C053F054C052F045C054F049C079
:1016300045F054C049F046C054F04AC046F054C08A
:101640004AF047C054F04BC047F054C04BF048C07C
:1016500054F04CC048F054C04CF0000E546E53503F
:1016600052C04DF04E6A4D5E000E4E5A4EBE42EFD5
:101670000BF04E5009E11A0E4D5CD8A042EF0BF072
:1016800044EF0BF07BEF0BF045504610471048102D
:10169000D8A44DEF0BF050EF0BF0010E51EF0BF013
:1016A000000E546E000E456E000E466E000E476E24
:1016B000000E486E52C053F084EF0BF054A063EF5D
:1016C0000BF065EF0BF06BEF0BF0D8905430010985
:1016D000546E6DEF0BF0D890543245A072EF0BF0C2
:1016E00074EF0BF075EF0BF0548E483448324732EC
:1016F00046324532532A5250535CD8A082EF0BF049
:1017000084EF0BF05EEF0BF051BC89EF0BF08BEF29
:101710000BF0CBEF0BF05350D8A491EF0BF093EFFD
:101720000BF09DEF0BF0000E456E000E466E000EA6
:10173000476E000E486EECEF0CF0495045264A50BB
:1017400046224B5047224C50482248A0AAEF0BF0AB
:10175000ACEF0BF058EF0CF054A0B1EF0BF0B3EF7F
:101760000BF0B9EF0BF0D89054300109546EBBEF79
:101770000BF0D890543245A0C0EF0BF0C2EF0BF045
:10178000C3EF0BF0548E483448324732463245326C
:10179000532A58EF0CF04950455C4A5046584B507C
:1017A00047584850800A4D6E4C50800A4D58D8B06A
:1017B000DCEF0BF0DEEF0BF009EF0CF04550495C6D
:1017C0004D6E46504A584E6E47504B584F6E4850DB
:1017D0004C58506EFF0E4D24456EFF0E4E20466E47
:1017E000FF0E4F20476EFF0E5020486E800E511A9C
:1017F000546C5450D8A4FFEF0BF001EF0CF011EF34
:101800000CF0010E4526000E46224722482211EF19
:101810000CF04950455E4A50465A4B50475A4C507E
:10182000485A4550461047104810D8A41AEF0CF0FB
:101830001CEF0CF051EF0CF05450D8A422EF0CF038
:1018400024EF0CF051EF0CF0000E456E000E466ECA
:10185000000E476E000E486EECEF0CF0D890453647
:1018600046364736483654AE38EF0CF03AEF0CF0B7
:101870003BEF0CF0458054A040EF0CF042EF0CF031
:1018800046EF0CF0D880543648EF0CF0D890543620
:101890005350D8B44EEF0CF050EF0CF051EF0CF069
:1018A000530647AE56EF0CF058EF0CF02EEF0CF04D
:1018B000000E526E54AE5FEF0CF061EF0CF079EF5A
:1018C0000CF054C04DF07F0E4D16D8B46AEF0CF0FA
:1018D0006CEF0CF070EF0CF0010E526E79EF0CF023
:1018E00045A075EF0CF077EF0CF079EF0CF06CEF92
:1018F0000CF05250D8B47FEF0CF081EF0CF0ACEF4D
:101900000CF0010E4526000E46224722482248A030
:101910008CEF0CF08EEF0CF0ACEF0CF045C04DF0FE
:1019200046C04EF047C04FF048C050F050345032DF
:101930004F324E324D324DC045F04EC046F04FC092
:1019400047F050C048F05328D8B4A9EF0CF0ABEFE3
:101950000CF0ACEF0CF0532A5328D8B4B2EF0CF0D3
:10196000B4EF0CF0BCEF0CF05350D8A4BAEF0CF06D
:10197000BCEF0CF0CEEF0CF0000E456E000E466E84
:10198000000E476E000E486E5350D8A4CAEF0CF0FC
:10199000CCEF0CF0CEEF0CF0000E516E53A0D3EF55
:1019A0000CF0D5EF0CF0D8EF0CF0478ED9EF0CF01F
:1019B000479ED8905330486E51AEE1EF0CF0E3EF04
:1019C0000CF0E4EF0CF0488E45C045F046C046F000
:1019D00047C047F048C048F01200A8C0D9FFA9C0CE
:1019E000DAFFDECFF6FFDDCFF7FF0800F550250A5E
:1019F000D8A4FDEF0CF0FFEF0CF01CEF0FF0A8C027
:101A0000D9FFA9C0DAFFDE2A000EDD22000E000198
:101A1000E56F000EE46FE4C055F0E5C056F0E669EE
:101A2000E769A8C0D9FFA9C0DAFFDECFF6FFDDCF96
:101A3000F7FF0800F5500B6E0C6A8EEC20F00B508F
:101A40000001BC6FBC51D8B428EF0DF02AEF0DF0A7
:101A500064EF0DF0A8C0D9FFA9C0DAFFDECFACF06B
:101A6000DDCFADF0010EAC27000EAD23ACC0F6FF0C
:101A7000ADC0F7FF0800F5500B6E0C6A8EEC20F03D
:101A80000B500001BD6FBD51D8B449EF0DF04BEFC5
:101A90000DF064EF0DF0A8C0D9FFA9C0DAFFDECFCA
:101AA000ACF0DDCFADF0020EAC27000EAD23ACC024
:101AB000F6FFADC0F7FF0800F5500B6E0C6A8EEC18
:101AC00020F00B500001BE6FA8C0D9FFA9C0DAFFFB
:101AD000DECFF6FFDDCFF7FF0800F550630AD8A48C
:101AE00074EF0DF076EF0DF09DEF0DF0A8C0D9FF6B
:101AF000A9C0DAFFDE2A000EDD22AAC0D9FFABC0E2
:101B0000DAFFDFCFACF0020EDE26DFCFADF0000E45
:101B1000DD22ACC0D9FFADC0DAFFDF50BF6FA6C079
:101B200010F0A7C011F0BFC012F079EC1AF010C08D
:101B3000A6F011C0A7F037EF0FF0A8C0D9FFA9C0D9
:101B4000DAFFDECFF6FFDDCFF7FF0800F550640ABD
:101B5000D8B4ADEF0DF0AFEF0DF0C1EF0DF0A8C0B0
:101B6000D9FFA9C0DAFFDECFF6FFDDCFF7FF08000F
:101B7000F550690AD8A4BFEF0DF0C1EF0DF001EFE9
:101B80000EF0A8C0D9FFA9C0DAFFDE2A000EDD22C0
:101B9000AAC0D9FFABC0DAFFDFCFACF0020EDE2661
:101BA000DFCFADF0000EDD22ACC0D9FFADC0DAFF53
:101BB000DECFB0F0DDCFB1F0000EB1BFFF0EB26FDF
:101BC000B36FB46FB56FB66FB76FA6C022F0A7C082
:101BD00023F0B0C024F0B1C025F0B2C026F0B3C0ED
:101BE00027F0B4C028F0B5C029F0B6C02AF0B7C0BD
:101BF0002BF01AEC13F022C0A6F023C0A7F037EFA9
:101C00000FF0660EBC19D8A408EF0EF00AEF0EF024
:101C10004AEF0EF0A8C0D9FFA9C0DAFFDECFF6FF69
:101C2000DDCFF7FF0800F5CFBFF0A8C0D9FFA9C0EE
:101C3000DAFFDE2A000EDD22AAC0D9FFABC0DAFF30
:101C4000DFCFACF0040EDE26DFCFADF0000EDD22DC
:101C5000ACC0D9FFADC0DAFFDECFB8F0DECFB9F04F
:101C6000DECFBAF0DECFBBF0A6C068F0A7C069F047
:101C7000B8C06AF0B9C06BF0BAC06CF0BBC06DF010
:101C8000BFC06EF060EC04F068C0A6F069C0A7F0B9
:101C900037EF0FF0BC0E056E000E066EB80E076E25
:101CA000080E086E000E0A6E020E096E0EEC1AF097
:101CB00005500610D8A45FEF0EF061EF0EF0E4EFD0
:101CC0000EF0A8C0D9FFA9C0DAFFDECFACF0DDCF9F
:101CD000ADF0010E0001AC27000EAD23ACC0F6FF45
:101CE000ADC0F7FF0800F5CFBFF0BF0EAC6FFF0E21
:101CF000AD6FA8C0D9FFA9C0DAFFDECFF6FFDDCFF8
:101D0000F7FF0800F550AE6FAF6BAC51AE27AD5189
:101D1000AF23AF5107E11A0EAE5DD8B092EF0EF0CF
:101D200094EF0EF0AEEF0EF0AAC0D9FFABC0DAFF11
:101D3000DFCFACF0040EDE26DFCFADF0000EDD22EB
:101D4000ACC0D9FFADC0DAFFDECFB8F0DECFB9F05E
:101D5000DECFBAF0DECFBBF0C6EF0EF0AAC0D9FFDF
:101D6000ABC0DAFFDFCFACF0040EDE26DFCFADF084
:101D7000000EDD22ACC0D9FFADC0DAFFDECFB8F077
:101D8000DECFB9F0DECFBAF0DECFBBF0020EA8C0D6
:101D9000D9FFA9C0DAFFDE26000EDD22A6C068F05A
:101DA000A7C069F0B8C06AF0B9C06BF0BAC06CF0F7
:101DB000BBC06DF0BFC06EF060EC04F068C0A6F070
:101DC00069C0A7F037EF0FF0A8C0D9FFA9C0DAFFAC
:101DD000DECFF6FFDDCFF7FF0800F550250AD8A4C7
:101DE000F4EF0EF0F6EF0EF00EEF0FF0A8C0D9FFF3
:101DF000A9C0DAFFDE2A000EDD22000E086E250ED5
:101E0000076EA6C009F0A7C00AF06DEC1DF0000E29
:101E10000001A76F010EA66F37EF0FF0A8C0D9FF22
:101E2000A9C0DAFFDE2A000EDD22000E0001A76F36
:101E3000000EA66F37EF0FF0A8C0D9FFA9C0DAFFD8
:101E4000DECFF6FFDDCFF7FF0800F550076E086A1A
:101E5000A6C009F0A7C00AF06DEC1DF0A8C0D9FF1C
:101E6000A9C0DAFFDE2A000EDD2207EF0FF0120014
:101E70002F50800B386E2F502F243E6E2EAE43EF26
:101E80000FF045EF0FF046EF0FF03E803E50D8B414
:101E90004CEF0FF04EEF0FF061EF0FF03E28D8A49B
:101EA00054EF0FF056EF0FF05EEF0FF0000E2C6EB8
:101EB000000E2D6E000E2E6E000E2F6E2E8E69EF10
:101EC0000FF0000E2C6E000E2D6E000E2E6E000E0A
:101ED0002F6E3350800B381A33503324396E32AEA4
:101EE00074EF0FF076EF0FF077EF0FF03980395085
:101EF000D8B47DEF0FF07FEF0FF092EF0FF039289D
:101F0000D8A485EF0FF087EF0FF08FEF0FF0000EE2
:101F1000306E000E316E000E326E000E336E328E59
:101F20009AEF0FF0000E306E000E316E000E326E22
:101F3000000E336E3950D8B4A0EF0FF0A2EF0FF0BF
:101F4000AAEF0FF03E50D8A4A8EF0FF0AAEF0FF0C1
:101F5000B4EF0FF0000E2C6E000E2D6E000E2E6EE4
:101F6000000E2F6E4CEF11F032502C02F3CF43F0E5
:101F7000F4CF44F043503A6E3B6A3C6A3D6A4450A9
:101F80003F6E406A416A426A31502D02F3CF43F0FE
:101F9000F4CF44F043503A26000E3B223C223D222F
:101FA00044503F26000E40224122422230502E0251
:101FB000F3CF43F0F4CF44F043503A26000E3B22D7
:101FC0003C223D2244503F26000E40224122422224
:101FD0003CC03DF03BC03CF03AC03BF03A6A305068
:101FE0002D02F3CF43F0F4CF44F043503A2644504F
:101FF0003B22000E3C22000E3D2231502C02F3CF3A
:1020000043F0F4CF44F043503A2644503B22000EB4
:102010003C22000E3D223CC03DF03BC03CF03AC0AB
:102020003BF03A6A30502C02F3CF43F0F4CF44F047
:1020300043503A2644503B22000E3C22000E3D22E3
:1020400032502D02F3CF43F0F4CF44F043503F26FB
:1020500044504022000E4122000E422231502E02F6
:10206000F3CF43F0F4CF44F043503F264450402296
:10207000000E4122000E422232502E02F3CF43F0D6
:10208000F4CF44F04350346E4450356E366A376AAC
:1020900036C037F035C036F034C035F0346A3450CD
:1020A0003F263550402236504122375042223AC016
:1020B00034F03BC035F03CC036F03DC037F0190E6F
:1020C00067EF10F0D8903732363235323432E82E9E
:1020D00062EF10F034503F263550402236504122F6
:1020E000375042223CC03DF03BC03CF03AC03BF090
:1020F0003A6A39503EC034F0356A3426000E352233
:10210000820E3424436EFF0E3520446E9DEF10F096
:10211000D8903F364036413642363DAE92EF10F011
:1021200094EF10F095EF10F03F80D8903A363B36A0
:102130003C363D364306D8A0440641AEA2EF10F02F
:10214000A4EF10F088EF10F0000E396E3DAEABEF4B
:1021500010F0ADEF10F0D1EF10F0FF0E3A14346E26
:10216000FF0E3B14356EFF0E3C14366E7F0E3D1491
:10217000376E3450351036103710D8B4C2EF10F027
:10218000C4EF10F0C8EF10F0010E396ED1EF10F06F
:102190003FA0CDEF10F0CFEF10F0D1EF10F0C4EF73
:1021A00010F03950D8B4D7EF10F0D9EF10F0FDEFA0
:1021B00010F0010E3F26000E40224122422242A092
:1021C000E4EF10F0E6EF10F0FDEF10F03FC034F058
:1021D00040C035F041C036F042C037F037343732B6
:1021E00036323532343234C03FF035C040F036C07C
:1021F00041F037C042F0434A442A44BE08EF11F090
:10220000445008E14328D8A008EF11F00AEF11F07C
:1022100014EF11F0000E3F6E000E406E800E416E06
:102220007F0E426E42EF11F044BE21EF11F0445098
:1022300006E14304D8B01FEF11F021EF11F02DEFAC
:1022400011F0000E3F6E000E406E000E416E000E4B
:10225000426E000E386E42EF11F043C03EF0FF0EAA
:102260003F16FF0E40167F0E4116000E42163EA08E
:102270003CEF11F03EEF11F03FEF11F0418ED8909E
:102280003E30426E385042123FC02CF040C02DF01C
:1022900041C02EF042C02FF012001650800B236E6A
:1022A000165016242A6E15AE58EF11F05AEF11F0A1
:1022B0005BEF11F02A802A50D8B461EF11F063EF80
:1022C00011F078EF11F02A28D8A469EF11F06BEF24
:1022D00011F073EF11F0000E136E000E146E000E6D
:1022E000156E000E166E158E000E166E80EF11F034
:1022F000000E136E000E146E000E156E000E166E9C
:102300001A50800B231A1A501A242B6E19AE8BEF19
:1023100011F08DEF11F08EEF11F02B802B50D8B40F
:1023200094EF11F096EF11F0ABEF11F02B28D8A439
:102330009CEF11F09EEF11F0A6EF11F0000E176E5A
:10234000000E186E000E196E000E1A6E198E000E19
:102350001A6EB3EF11F0000E176E000E186E000E1D
:10236000196E000E1A6E1750181019101A10D8A4F2
:10237000BCEF11F0BEEF11F0D6EF11F0000E136EAE
:10238000000E146E000E156E000E166E800E1512E5
:102390007F0E16122350161213C013F014C014F03F
:1023A00015C015F016C016F019EF13F02A50D8A476
:1023B000DCEF11F0DEEF11F0E8EF11F0000E136E1C
:1023C000000E146E000E156E000E166E19EF13F04F
:1023D0002B502AC01BF01C6A1B5E000E1C5A7F0E7D
:1023E0001B24246E000E1C20256E13C01FF014C089
:1023F00020F015C021F016C022F0000E136E000E62
:10240000146E000E156E000E166E000E266E000E77
:10241000276E000E286E000E296E000E2B6E49EFFF
:1024200012F02B50D8B417EF12F019EF12F030EF72
:1024300012F0D8901F36203621362236D890133627
:1024400014361536163629AE28EF12F02AEF12F0A0
:102450002BEF12F01380D8902636273628362936EF
:1024600017501F5C18502058195021581A502258E4
:10247000D8A03DEF12F03FEF12F048EF12F0298C98
:1024800017501F5E1850205A1950215A1A50225ABC
:102490002B2A190E2B644FEF12F051EF12F011EFAF
:1024A00012F01F50201021102210D8B45AEF12F051
:1024B0005CEF12F074EF12F0268074EF12F0D890F7
:1024C000133614361536163629AE69EF12F06BEF57
:1024D00012F06CEF12F01380D8902636273628368B
:1024E00029362406D8A0250615AE79EF12F07BEF29
:1024F00012F05FEF12F0000E2B6E29AE82EF12F099
:1025000084EF12F0A8EF12F0FF0E26141B6EFF0EE0
:1025100027141C6EFF0E28141D6E7F0E29141E6ECC
:102520001B501C101D101E10D8B499EF12F09BEF19
:1025300012F09FEF12F0010E2B6EA8EF12F013A015
:10254000A4EF12F0A6EF12F0A8EF12F09BEF12F03A
:102550002B50D8B4AEEF12F0B0EF12F0D4EF12F06F
:10256000010E1326000E14221522162216A0BBEF10
:1025700012F0BDEF12F0D4EF12F013C01BF014C034
:102580001CF015C01DF016C01EF01E341E321D3288
:102590001C321B321BC013F01CC014F01DC015F000
:1025A0001EC016F0244A252A25BEDFEF12F0255062
:1025B00008E12428D8A0DFEF12F0E1EF12F0ECEFF1
:1025C00012F0000E256E2468000E136E000E146EBD
:1025D000000E156E000E166E25BEF9EF12F0255096
:1025E00006E12404D8B0F7EF12F0F9EF12F007EF8C
:1025F00013F0000E256E000E246E000E136E000EFA
:10260000146E000E156E000E166E000E236E24C0A2
:102610002AF02AA00EEF13F010EF13F013EF13F0CF
:10262000158E14EF13F0159ED8902A30166ECAEF4F
:1026300011F0120024C03CF025C03DF026C03EF051
:1026400027C03FF028C040F029C041F02AC042F026
:102650002BC043F043BE2FEF13F032EF13F0010E07
:1026600033EF13F0000E3A6E3B6A3A503B10D8B489
:102670003CEF13F03EEF13F04EEF13F0431E421EFB
:10268000411E401E3F1E3E1E3D1E3C6C000E3D2264
:102690003E223F2240224122422243220001E7BF44
:1026A00054EF13F056EF13F057EF13F05592E7BFC6
:1026B00064EF13F0E75106E1E605D8B062EF13F0DE
:1026C00064EF13F06AEF13F0000E376E010E366EF2
:1026D0006EEF13F0E6C036F0E7C037F0E4C038F034
:1026E000E5C039F03A503B10D8A479EF13F07BEFF6
:1026F00013F082EF13F055A480EF13F082EF13F084
:1027000085EF13F03806D8A03906000E456E4F0E3F
:10271000446E000E0101836F0AEF14F04406D8A046
:102720004506340E4424D96E010E4520DA6E3CC0B5
:1027300005F03DC006F03EC007F03FC008F040C0C5
:1027400009F041C00AF042C00BF043C00CF00A0E81
:102750000D6E000E0E6E000E0F6E000E106E000E4F
:10276000116E000E126E000E136E000E146E31EC20
:1027700017F005C02CF006C02DF007C02EF008C0E1
:102780002FF009C030F00AC031F00BC032F00CC09D
:1027900033F02CC017F02EC018F016EC21F01750B3
:1027A000300FDF6E3606D8A037063806D8A03906B7
:1027B0003CC005F03DC006F03EC007F03FC008F049
:1027C00040C009F041C00AF042C00BF043C00CF019
:1027D0000A0E0D6E000E0E6E000E0F6E000E106EC5
:1027E000000E116E000E126E000E136E000E146EAF
:1027F0006DEC16F005C03CF006C03DF007C03EF0A1
:1028000008C03FF009C040F00AC041F00BC042F0E0
:102810000CC043F045BE15EF14F0455008E14404E8
:10282000D8A015EF14F017EF14F047EF14F03C5058
:102830003D103E103F104010411042104310D8A4EC
:1028400024EF14F026EF14F08EEF13F037BE33EFC1
:1028500014F0375006E13604D8B031EF14F033EFFE
:1028600014F08EEF13F039BE3EEF14F0395008E14A
:102870003804D8A03EEF14F040EF14F047EF14F006
:1028800055B245EF14F047EF14F08EEF13F03A50C5
:102890003B10D8A44EEF14F050EF14F057EF14F0A3
:1028A00055A455EF14F057EF14F075EF14F04406EB
:1028B000D8A045063A503B10D8A461EF14F063EF5E
:1028C00014F069EF14F0000E356E2B0E346E6DEFC0
:1028D00014F0000E356E2D0E346E340E4424D96E75
:1028E000010E4520DA6E34C0DFFF22C017F023C08E
:1028F00018F0340E4424196E010E45201A6E38C0AB
:102900001BF039C01CF0AAEC1BF017C022F018C055
:1029100023F01200DAC03CF0DBC03DF0DCC03EF03A
:10292000DDC03FF02CC03CF02DC03DF02EC03EF08D
:102930002FC03FF0810E306EFF0E316E3CC032F082
:102940003DC033F03EC034F03FC035F0180EAEEF5E
:1029500014F0D8903532343233323232E82EA9EFC7
:1029600014F0325030243A6E000E31203B6E3BBEE4
:10297000C3EF14F03B5009E1170E3A5CD8A0C3EF47
:1029800014F0C5EF14F0CFEF14F02CC02CF02DC0D4
:102990002DF02EC02EF02FC02FF092EF15F03BBE81
:1029A000D4EF14F0D6EF14F046EF15F03AC030F043
:1029B000FF0E316EFF0E326E7F0E336E000E346EE0
:1029C0003066E5EF14F0EDEF14F034343432333286
:1029D00032323132302EE0EF14F031C036F032C0F6
:1029E00037F033C038F034C039F036503C14306E14
:1029F00037503D14316E38503E14326E39503F140A
:102A0000336E3050311032103310D8A40AEF15F065
:102A10000CEF15F00EEF15F0C5EF14F03CC030F0E0
:102A20003DC031F03EC032F03FC033F0200E1EEF0B
:102A300015F0D8903332323231323032E82E19EF7D
:102A400015F03050311032103310D8B42AEF15F091
:102A50002CEF15F034EF15F036503C2637503D2260
:102A600038503E2239503F22361C306E371C316EB2
:102A7000381C326E391C336E30503C1631503D16C6
:102A800032503E1633503F168AEF15F03CC030F0FE
:102A90003DC031F03EC032F03FC033F0200E56EF63
:102AA00015F0D8903332323231323032E82E51EFD5
:102AB00015F03050311032103310D8A462EF15F0F9
:102AC00064EF15F06EEF15F0000E3C6E000E3D6EDB
:102AD000000E3E6E000E3F6E8AEF15F0D8903C342B
:102AE000306E3D34316E3E34326E3F34336E305092
:102AF000311032103310D8B480EF15F082EF15F09A
:102B00008AEF15F0000E3C6E000E3D6E800E3E6E9C
:102B1000BF0E3F6E3CC02CF03DC02DF03EC02EF0ED
:102B20003FC02FF012000D6E0D50D8B49AEF15F083
:102B30009CEF15F0BEEF15F008BEA3EF15F0A1EF66
:102B400015F0BEEF15F005C009F006C00AF007C089
:102B50000BF008C00CF0091E0A1E0B1E0C1E092AE1
:102B6000000E0A220B220C2209C00FF00AC010F03E
:102B70000BC011F00CC012F0C6EF15F005C00FF03D
:102B800006C010F007C011F008C012F00550061082
:102B900007100810D8A4CFEF15F0D1EF15F0DBEF38
:102BA00015F0000E056E000E066E000E076E000E8C
:102BB000086E6CEF16F0960E0E6EE5EF15F00E2A0D
:102BC000D8901232113210320F32000E0F14096EEB
:102BD000000E10140A6E000E11140B6EFE0E12146D
:102BE0000C6E09500A100B100C10D8A4FAEF15F057
:102BF000FCEF15F0DFEF15F00AEF16F00E2A010ECC
:102C00000F26000E102211221222D89012321132F9
:102C100010320F32000E0F14096E000E10140A6EDF
:102C2000000E11140B6EFF0E12140C6E09500A10D8
:102C30000B100C10D8A41FEF16F021EF16F0FEEFCA
:102C400015F029EF16F00E06D8900F361036113613
:102C5000123611BE2EEF16F030EF16F038EF16F0E8
:102C6000020E0E6036EF16F038EF16F023EF16F076
:102C70000EB03DEF16F03FEF16F040EF16F0119E4C
:102C8000D8900E320EC009F00A6A0B6A0C6A09C0AD
:102C90000CF00B6A0A6A096A09500F120A501012E6
:102CA0000B5011120C5012120D50D8B45AEF16F0EE
:102CB0005CEF16F064EF16F008BE63EF16F061EFFC
:102CC00016F064EF16F0128E0FC005F010C006F07B
:102CD00011C007F012C008F01200000E166E14BEEC
:102CE00076EF16F074EF16F088EF16F0141E131E30
:102CF000121E111E101E0F1E0E1E0D6C000E0E2237
:102D00000F2210221122122213221422010E166EFB
:102D10000CBE8FEF16F08DEF16F0A1EF16F00C1E23
:102D20000B1E0A1E091E081E071E061E056C000E3D
:102D300006220722082209220A220B220C22010E57
:102D4000161A20EE17F0070EDE6AE806FDE20D50B7
:102D50000E100F1010101110121013101410D8B400
:102D6000B4EF16F0B6EF16F008EF17F0010E156E7F
:102D7000C4EF16F0D8900D360E360F3610361136D9
:102D8000123613361436152A14AEC9EF16F0CBEFEF
:102D900016F0BAEF16F0D8901736183619361A36DC
:102DA0001B361C361D361E360D50055C0E5006585F
:102DB0000F500758105008581150095812500A580F
:102DC00013500B5814500C58D8A0E9EF16F0EBEF45
:102DD00016F0FCEF16F00D50055E0E50065A0F501F
:102DE000075A1050085A1150095A12500A5A1350D3
:102DF0000B5A14500C5A1780D890143213321232D6
:102E0000113210320F320E320D32152ECBEF16F07A
:102E10001650D8B40EEF17F010EF17F020EF17F0A0
:102E20001E1E1D1E1C1E1B1E1A1E191E181E176C90
:102E3000000E182219221A221B221C221D221E22D9
:102E400017C005F018C006F019C007F01AC008F046
:102E50001BC009F01CC00AF01DC00BF01EC00CF016
:102E60001200000E166E0CBE3AEF17F038EF17F096
:102E70004CEF17F00C1E0B1E0A1E091E081E071E23
:102E8000061E056C000E06220722082209220A22CD
:102E90000B220C22010E166E14BE53EF17F051EFE9
:102EA00017F063EF17F0141E131E121E111E101ED2
:102EB0000F1E0E1E0D6C000E0E220F22102211226C
:102EC0001222132214220D500E100F101010111088
:102ED000121013101410D8B470EF17F072EF17F02F
:102EE000BAEF17F0010E156E80EF17F0D8900D367F
:102EF0000E360F3610361136123613361436152AA2
:102F000014AE85EF17F087EF17F076EF17F00D503E
:102F1000055C0E5006580F500758105008581150B5
:102F2000095812500A5813500B5814500C58D8A076
:102F30009CEF17F09EEF17F0AEEF17F00D50055E07
:102F40000E50065A0F50075A1050085A1150095A7D
:102F500012500A5A13500B5A14500C5AD89014326B
:102F600013321232113210320F320E320D32152E50
:102F700087EF17F01650D8B4C0EF17F0C2EF17F074
:102F8000D2EF17F00C1E0B1E0A1E091E081E071E8C
:102F9000061E056C000E06220722082209220A22BC
:102FA0000B220C2205C005F006C006F007C007F092
:102FB00008C008F009C009F00AC00AF00BC00BF005
:102FC0000CC00CF0120017EC23F0F28EF28C000E05
:102FD000956E000E0F015E6F1F0E0001D16F710E16
:102FE000D06F1E0EE82EFED7D02FFCD7D12FFAD7E8
:102FF00000F08CAAFEEF17F003EF18F00001D06B81
:10300000D02B05EF18F00001D06BD03BD0478C508F
:10301000D019DF0BD0198C6E2C0E146E060E156EA7
:10302000440EF5EC1EF0000E146E940E156E010E9B
:10303000166E000E186E060E176E440EFFEC1DF095
:10304000010194510001D16FD06B01019551000134
:10305000D02501019E6F000E0001D12101019F6F5B
:10306000000E306E000E316E2F0E326E430E336E38
:10307000000E176EFF0E186E7F0E196E470E1A6E39
:103080009EC105F09FC106F0076A086A000E93EC26
:1030900015F005C013F006C014F007C015F008C005
:1030A00016F04DEC11F013C02CF014C02DF015C02B
:1030B0002EF016C02FF038EC0FF02CC045F02DC0CC
:1030C00046F02EC047F02FC048F0000E496E000EAB
:1030D0004A6E340E4B6EC20E4C6E8DEC0AF045C03B
:1030E0009AF146C09BF147C09CF148C09DF19F0EEC
:1030F0000001C86F080EC96F9AC1CAF09BC1CBF01E
:103100009CC1CCF09DC1CDF0A9EC22F0ECEF17F002
:1031100051EF00F0073408340E6E0E50D8A493EF30
:1031200018F095EF18F09FEF18F0000E056E000EE6
:10313000066E000E076E000E086E0CEF19F005C04B
:1031400009F006C00AF007C00BF008C00CF0200E12
:10315000AFEF18F0D8900C320B320A320932E82E59
:10316000AAEF18F009500D6E078EFF0E0516FF0E20
:103170000616FF0E0716000E0816960E0E5E0EBE01
:10318000C6EF18F0C4EF18F0DCEF18F00E50800A0C
:10319000970FD8B0CEEF18F0D0EF18F0D2EF18F0AC
:1031A00095EF18F0D89008320732063205320E3EFD
:1031B000D2EF18F0F4EF18F01F0E0E64E2EF18F0E3
:1031C000E4EF18F0ECEF18F095EF18F0D890053612
:1031D0000636073608360E060E50D8A4F2EF18F061
:1031E000F4EF18F0E6EF18F00D50D8B4FAEF18F03D
:1031F000FCEF18F004EF19F0081E071E061E056C00
:10320000000E06220722082205C005F006C006F0BF
:1032100007C007F008C008F01200000E45144D6EFC
:10322000000E46144E6E800E47144F6E7F0E4814EB
:10323000506E4D504E104F105010D8A422EF19F080
:1032400024EF19F02CEF19F0000E456E000E466EBB
:10325000000E476E000E486E000E49144D6E000EB3
:103260004A144E6E800E4B144F6E7F0E4C14506EEF
:103270004D504E104F105010D8A441EF19F043EFAD
:1032800019F04BEF19F0000E496E000E4A6E000E59
:103290004B6E000E4C6E48AE50EF19F052EF19F025
:1032A0005BEF19F0456C461ED8B0462A471ED8B0D1
:1032B000472A800E48564CAE60EF19F062EF19F0C5
:1032C0006BEF19F0496C4A1ED8B04A2A4B1ED8B091
:1032D0004B2A800E4C56000E451A000E461A000E60
:1032E000471A800E481A000E491A000E4A1A000E9C
:1032F0004B1A800E4C1A4950455C4A5046584B5068
:1033000047584C504858D8B088EF19F08AEF19F058
:103310008DEF19F0D8908EEF19F0D8801200DEC032
:103320000FF0DFC010F0E0C011F0E1C012F005C0F6
:103330000FF006C010F007C011F008C012F00FC067
:1033400009F010C00AF011C00BF012C00CF0180EFA
:10335000AFEF19F0D8900C320B320A320932E82E56
:10336000AAEF19F009500D6E0E6A0D500E10D8A478
:10337000BCEF19F0BEEF19F0DEEF19F0D8900F3462
:10338000096E10340A6E11340B6E12340C6E095033
:103390000A100B100C10D8A4D0EF19F0D2EF19F0CE
:1033A000D8EF19F0000E066E020E056E0DEF1AF042
:1033B000000E066E030E056E0DEF1AF00D280E10AE
:1033C000D8A4E5EF19F0E7EF19F009EF1AF00FC0F4
:1033D00009F010C00AF011C00BF012C00CF0090E79
:1033E000D89009360A360B360C36E82EF0EF19F075
:1033F00009500A100B100C10D8B401EF1AF004EFAA
:103400001AF0010E05EF1AF0000E056E066A0DEFB8
:103410001AF0000E066E040E056E120005C00CF0C8
:1034200006C00DF007C00EF008C00FF00906D8A0C6
:103430000A06092806E10A28D8A421EF1AF023EF8A
:103440001AF030EF1AF0000E066E000E056E78EFDF
:103450001AF00C4A0D2A0E4A0F2A0906D8A00A06AD
:103460000CC0D9FF0DC0DAFFDF50D8B43AEF1AF024
:103470003CEF1AF067EF1AF00EC0F6FF0FC0F7FF2F
:103480000800F5500009D8B448EF1AF04AEF1AF0D6
:1034900067EF1AF009500A10D8B451EF1AF053EF41
:1034A0001AF067EF1AF00CC0D9FF0DC0DAFFDF5039
:1034B0000B6E0EC0F6FF0FC0F7FF0800F5500B189B
:1034C000D8B465EF1AF067EF1AF029EF1AF00CC0C4
:1034D000D9FF0DC0DAFFDF500B6E0EC0F6FF0FC034
:1034E000F7FF0800F5500B5C056E066AD8A00606CB
:1034F00012000001E451E511D8A481EF1AF083EF26
:103500001AF089EF1AF0E4C016F0E5C017F08FEF5B
:103510001AF0FF0EE425166EFF0EE521176E55A07A
:1035200094EF1AF096EF1AF09FEF1AF012C007F01E
:10353000086A10C009F011C00AF06DEC1DF017BE4A
:10354000A4EF1AF0A6EF1AF0A8EF1AF0ACEF1AF0F9
:10355000000E176E000E166E000E156E000E146E25
:10356000BEEF1AF0000E086E200E076E10C009F0B4
:1035700011C00AF06DEC1DF0144A152A1650145CA7
:103580001550800A136E1750800A1358D8A0CBEF3D
:103590001AF0CDEF1AF0B2EF1AF055B0D2EF1AF0E0
:1035A000D4EF1AF0DDEF1AF012C007F0086A10C06D
:1035B00009F011C00AF06DEC1DF0010E1424106E1C
:1035C000000E1520116E120022EC23F00009D8B471
:1035D000ECEF1AF0EEEF1AF02BEF1BF0FCEF1AF005
:1035E0009AEC23F047EF1BF096EC23F047EF1BF02B
:1035F0008EEC23F047EF1BF012C10EF013C10FF059
:1036000021EE06F002D80FEF1BF00500FA6EDE5037
:10361000FD6EDE50FE6EF850FF6EFA501200106E16
:10362000116A1150000AD8B418EF1BF0F8EF1AF025
:103630001050010AD8B4F8EF1AF0030AD8B4F0EF2A
:103640001AF0010AD8B4F4EF1AF0070AD8B4F8EF68
:103650001AF0F8EF1AF0010123911DC1D9FF1EC124
:10366000DAFF1D4B1E2BDF509EEC23F001011F07DC
:10367000D8A020071F512011D8A441EF1BF043EF21
:103680001BF046EF1BF0060E47EF1BF0030E120077
:10369000000E0A6E08BE51EF1BF04FEF1BF057EF04
:1036A0001BF0076C081ED8B0082A010E0A6E06BE71
:1036B0005EEF1BF05CEF1BF064EF1BF0056C061E69
:1036C000D8B0062A010E0A1A000E0C6E000E0B6E00
:1036D00007500810D8B46FEF1BF071EF1BF099EF93
:1036E0001BF0010E096E79EF1BF0D89007360836F3
:1036F000092A08AE7EEF1BF080EF1BF075EF1BF080
:10370000D8900B360C360750055C08500658D8A0E8
:103710008CEF1BF08EEF1BF093EF1BF00750055E54
:103720000850065A0B80D89008320732092E80EFD5
:103730001BF00A50D8B49FEF1BF0A1EF1BF0A5EFD0
:103740001BF00B6C0C1ED8B00C2A0BC005F00CC083
:1037500006F0120055A0AFEF1BF0B1EF1BF0BBEF6E
:103760001BF019C010F01AC011F017C012F018C0E9
:1037700013F0B1EC20F01CBEC0EF1BF0C2EF1BF049
:10378000C8EF1BF01BC020F01CC021F0CCEF1BF0D9
:10379000000E216E000E206E000E1F6E000E1E6EBB
:1037A000DEEF1BF0000E086E200E076E17C009F04A
:1037B00018C00AF06DEC1DF01E4A1F2A20501E5C36
:1037C0001F50800A1D6E2150800A1D58D8A0EBEFB3
:1037D0001BF0EDEF1BF0D2EF1BF055B0F2EF1BF03A
:1037E000F4EF1BF0FEEF1BF019C010F01AC011F03F
:1037F00017C012F018C013F0B1EC20F019C005F09A
:103800001AC006F01FEC20F020500524176E21503E
:103810000620186E1200D20E5824D96EDA6A000EF5
:10382000DA22000EDF6EABA418EF1CF01AEF1CF0CA
:103830002FEF1CF0D20E5824D96EDA6A000EDA226D
:103840000001DF8202D82FEF1CF00500FA6EEC5168
:10385000FD6EED51FE6EF850FF6EFA501200ABA2F5
:1038600034EF1CF036EF1CF04BEF1CF0D20E582456
:10387000D96EDA6A000EDA220001DF8402D84BEF3B
:103880001CF00500FA6EEA51FD6EEB51FE6EF85029
:10389000FF6EFA501200D20E5824D96EDA6A000E6A
:1038A000DA22DF50D8B457EF1CF059EF1CF069EF63
:1038B0001CF002D867EF1CF005000001FA6EE85119
:1038C000FD6EE951FE6EF850FF6EFA5012006BEF7C
:1038D0001CF093EC22F01200000E0A6E06BE75EF8B
:1038E0001CF073EF1CF07BEF1CF0056C061ED8B0CB
:1038F000062A010E0A6E08BE82EF1CF080EF1CF053
:1039000086EF1CF0076C081ED8B0082A0750081074
:10391000D8B48DEF1CF08FEF1CF0B3EF1CF0010E4C
:10392000096E97EF1CF0D89007360836092A08AEC2
:103930009CEF1CF09EEF1CF093EF1CF00750055C11
:1039400008500658D8A0A7EF1CF0A9EF1CF0ADEF67
:103950001CF00750055E0850065AD890083207320E
:10396000092E9EEF1CF00A50D8B4B9EF1CF0BBEF43
:103970001CF0BFEF1CF0056C061ED8B0062A05C06F
:1039800005F006C006F01200000E05140D6E000EC4
:1039900006140E6E800E07140F6E7F0E0814106E44
:1039A0000D500E100F101010D8A4D9EF1CF0DBEF43
:1039B0001CF0E3EF1CF0000E056E000E066E000E0C
:1039C000076E000E086E000E09140D6E000E0A142C
:1039D0000E6E800E0B140F6E7F0E0C14106E0D50B9
:1039E0000E100F101010D8A4F8EF1CF0FAEF1CF016
:1039F00002EF1DF0000E096E000E0A6E000E0B6E37
:103A0000000E0C6E095005180FE10A5006180CE163
:103A10000B50071809E10C500818D8B412EF1DF02C
:103A200014EF1DF017EF1DF0D89018EF1DF0D8809F
:103A30001200B4EC23F01DC1D9FF1EC1DAFFDF6E06
:103A400001011D4B1E2B1F07D8A020071F5120115D
:103A5000D8B42DEF1DF02FEF1DF034EF1DF0A6ECC4
:103A600023F0050E6CEF1DF023873FEF1DF082EC75
:103A700023F06CEF1DF086EC23F06CEF1DF00CC111
:103A80000EF00DC10FF002D850EF1DF00500FA6ED8
:103A90000051FD6E0151FE6EF850FF6EFA5012009B
:103AA000106E116A1150000AD8B459EF1DF03BEFA7
:103AB0001DF01050010AD8B43BEF1DF0030AD8B432
:103AC00037EF1DF0010AD8B437EF1DF0070AD8B45C
:103AD0003BEF1DF03BEF1DF0120009500A10D8B467
:103AE00074EF1DF076EF1DF07FEF1DF009500A1006
:103AF000D8A47DEF1DF07FEF1DF084EF1DF007507F
:103B000060EC23F0B7EF1DF020EE09F00950D92644
:103B10000A50DA22DE50DE10D8B491EF1DF093EF98
:103B20001DF0AEEF1DF020EE09F00950D9260A5025
:103B3000DA2210EE03F00950E1260A50E222DE50AC
:103B4000E65CE650800A0F6EDE50800A0F58D8B04F
:103B5000ACEF1DF0AEEF1DF0B7EF1DF020EE03F05F
:103B60000950D9260A50DA22DE2A000EDD22120080
:103B7000056E010E066E010123B5C1EF1DF0C3EF06
:103B80001DF0FDEF1DF005C01CF12393238523914B
:103B90000E0E216F010E1B6FF40E1A6F2387740E29
:103BA000006F470E016F000E0C6F000E0D6F740E4C
:103BB000026F470E036F000E0E6F000E0F6F740E34
:103BC000046F470E056F000E106F000E116F740E1C
:103BD000066F470E076F000E126F000E136F700E08
:103BE000086F470E096F000E146F000E156FC6ECBC
:103BF00023F0CFEC22F0000E066E06501200196E74
:103C000015C01CF016C01DF017C01AF018C01BF02C
:103C10001950B8EC1DF00009D8B411EF1EF013EFE5
:103C20001EF008EF1EF0AC0E0A6E420E0B6E1A0E5E
:103C30000C6E000E0D6E0BEC23F0140E056E000ED4
:103C4000066E000E086E010E076EBDEC22F0000E2F
:103C50000A6E000E0B6E000E0C6E000E0D6EFFEC69
:103C600022F07EEC23F07DEC22F0E806D8B43BEFA6
:103C70001EF03DEF1EF033EF1EF01200010123870E
:103C80004FEF1EF092EC23F07CEF1EF0B2EC23F02D
:103C9000030E7CEF1EF08EEC23F07CEF1EF00CC1C7
:103CA0000EF00DC10FF002D860EF1EF00500FA6EA5
:103CB0000051FD6E0151FE6EF850FF6EFA50120079
:103CC000106E116A1150000AD8B469EF1EF04BEF64
:103CD0001EF01050010AD8B44BEF1EF0030AD8B4FE
:103CE00042EF1EF0010AD8B442EF1EF0070AD8B422
:103CF00046EF1EF04BEF1EF01200096E0550061045
:103D0000D8B485EF1EF087EF1EF0A1EF1EF009502A
:103D1000020D000EF324D96E010EF420DA6E05C0F8
:103D2000DEFF06C0DDFF0950020D0C0EF324D96E34
:103D3000010EF420DA6E07C0DEFF08C0DDFFB9EF28
:103D40001EF00950020D000EF324D96E010EF4206E
:103D5000DA6E740EDE6E470EDD6E0950020D0C0E2B
:103D6000F324D96E010EF420DA6E000EDE6E000E22
:103D7000DD6E12009D9A160E056E380E066E6AEC08
:103D800023F09D98EA0E056E410E066E65EC23F059
:103D9000080EB86E900EAB6E240EAC6EE10EAF6ED8
:103DA000040EB06E920E056E470E066E74EC23F094
:103DB000580E056E470E066E6FEC23F05E0E056E14
:103DC000470E066E79EC23F0000E0001F26F000E34
:103DD000596E000EF56F080EF46F000E586E000E4F
:103DE000576E000EF36F9D8A1200166E1650B8ECD7
:103DF0001DF00009D8B4FFEF1EF001EF1FF0F6EF41
:103E00001EF0A20E0A6E440E0B6E150E0C6E000E06
:103E10000D6E0BEC23F0140E056E000E066E000EF8
:103E2000086E010E076EBDEC22F0000E0A6E000E49
:103E30000B6E000E0C6E000E0D6EFFEC22F07EEC91
:103E400023F07DEC22F0E806D8B429EF1FF02BEF29
:103E50001FF021EF1FF0120001012391020E226FCB
:103E60003AEF1FF092EC23F061EF1FF08EEC23F09D
:103E700061EF1FF010C10EF011C10FF021EE04F040
:103E800002D84DEF1FF00500FA6EDE50FD6EDE50D9
:103E9000FE6EF850FF6EFA501200106E116A11504B
:103EA000000AD8B456EF1FF036EF1FF01050020A88
:103EB000D8B432EF1FF0010AD8B432EF1FF036EF5A
:103EC0001FF01200C6EC23F0010123A16AEF1FF0DE
:103ED0006CEF1FF079EF1FF022EC23F00009D8B44B
:103EE00074EF1FF076EF1FF079EF1FF00F0E010156
:103EF000216F01012151020D010EF324F66E080E0F
:103F0000F420F76E02D891EF1FF00500FA6E090059
:103F1000F550FD6E0900F550FE6EF850FF6EFA5038
:103F200012000101216F1200C2C0C6F0C3C0C7F069
:103F3000000E0001E36F000EE26FB2EF1FF0C0C091
:103F4000A6F0C1C0A7F0C60EA86F000EA96FC4C02E
:103F5000AAF0C5C0ABF0EDEC0CF00001A651E227D1
:103F6000A751E323C6C0F6FFC7C0F7FF0800F5500E
:103F70000009D8A4BEEF1FF0C0EF1FF09FEF1FF0A5
:103F8000E2C0C0F0E3C0C1F0120007C00BF008C0EF
:103F90000CF005C00DF006C00EF00B50096E0C5071
:103FA0000A6E0B4A0C2A09C0F6FF0AC0F7FFF86A2E
:103FB0000DC0D9FF0EC0DAFF0D4A0E2A070EF764B6
:103FC00003D00800F55005D0F6CFE9FFF7CFEAFFA0
:103FD000EF50DF6EDF50D8A4F0EF1FF0F2EF1FF0CC
:103FE000CDEF1FF01200056E0001F451D8B4FBEFC5
:103FF0001FF0FDEF1FF0F4EF1FF09DB802EF20F06F
:1040000004EF20F008EF20F005C0ADFF1DEF20F019
:104010009D982C0E5924D96EDA6A010EDA2205C059
:10402000DFFF592A070E596418EF20F01AEF20F02D
:104030001CEF20F0000E596EF4079D88120005C099
:1040400007F006C008F027EF20F0054A062A05C051
:10405000F6FF06C0F7FFF86A070EF76403D0080002
:10406000F55005D0F6CFE9FFF7CFEAFFEF50000992
:10407000D8A43DEF20F03FEF20F025EF20F00750CF
:10408000055C056E08500658066E1200900EF66E1E
:10409000470EF76E000EF86E0900F5CFF6F0090036
:1040A000F5CFF7F001EE00F0940EEE6AE806FDE1C0
:1040B00000EED2F0240EEE6AE806FDE1596A586A75
:1040C000576A566A556A5A905A92000EF86E000165
:1040D000E3EF17F0000E0001641B000E651B000EDD
:1040E000661B800E671B60C045F061C046F062C071
:1040F00047F063C048F064C049F065C04AF066C04C
:104100004BF067C04CF08DEC0AF045C060F046C043
:1041100061F047C062F048C063F01200BF0E0D6E40
:10412000FF0E0E6E0BC00FF00CC010F00D500F26DE
:104130000E501022105007E11A0E0F5CD8B0A3EFFA
:1041400020F0A5EF20F0ACEF20F0200E0B100B6E4E
:104150000C500C6EB0EF20F00BC00BF00CC00CF04C
:104160001200000E166E000E156EC2EF20F014C085
:1041700007F0086A12C009F013C00AF06DEC1DF0D8
:10418000154A162A15501024D96E16501120DA6ED1
:10419000DF50146E1450D8A4D0EF20F0D2EF20F0EE
:1041A000B7EF20F01200126E010E136E010123B35F
:1041B000DCEF20F0DEEF20F0F3EF20F02383000EA1
:1041C000136E1250D8B4E7EF20F0E9EF20F0EDEFD6
:1041D00020F0010E216FEFEF20F0020E216FC0ECF6
:1041E00023F0F0EC22F013501200080E0001F461ED
:1041F000FCEF20F0FEEF20F014EF21F02C0EF5255F
:10420000D96EDA6A010EDA22DF50AD6EF52B070E99
:10421000F5650DEF21F00FEF21F011EF21F0000E09
:10422000F56FF42B15EF21F09D98120018BE23EFC7
:1042300021F0185006E11704D8B021EF21F023EF48
:1042400021F031EF21F017C019F018C01AF0191E33
:104250001A1E194A1A2A19C017F01AC018F035EF99
:1042600021F017C017F018C018F0120020EE02F06D
:104270000E50D9260F50DA22DECF05F0DDCF06F042
:104280000EC0D9FF0FC0DAFFDECF07F0DDCF08F098
:10429000BDEC22F0000E0A6E000E0B6E000E0C6ECE
:1042A000000E0D6E0BEC23F0020E120020EE02F059
:1042B0000E50D9260F50DA22DECF05F0DDCF06F002
:1042C0000EC0D9FF0FC0DAFFDECF07F0DDCF08F058
:1042D000BDEC22F0000E0A6E000E0B6E000E0C6E8E
:1042E000000E0D6E0BEC23F0020E1200000E8D6E10
:1042F000000E8C6E000E896E000E8A6E000E8B6EA4
:10430000070E966E92689368870E946E95680F01FB
:104310005E69040E5D6F3C0E5C6F070E5F6F2F0EC3
:104320005B6F000E856EF18E1200BF0E076EFF0EE2
:10433000086E05C009F006C00AF0075009260850AB
:104340000A220A500AE11A0E095CD8A0AAEF21F04D
:10435000ADEF21F0010EAEEF21F0000E056E066A02
:1043600012000550061007100810D8B4BAEF21F05B
:10437000BCEF21F0C4EF21F0000E051A000E061A62
:10438000000E071A800E081A05C005F006C006F0D8
:1043900007C007F008C008F012000EC005F00FC0FB
:1043A00006F0000E086E010E076EBDEC22F0000E46
:1043B0000A6E000E0B6E000E0C6E000E0D6E0BECF6
:1043C00023F0040E12000EC005F00FC006F0000E20
:1043D000086E020E076EBDEC22F0000E0A6E000E93
:1043E0000B6E000E0C6E000E0D6E0BEC23F0020E29
:1043F00012000EC005F00FC006F0000E086E010E90
:10440000076EBDEC22F0000E0A6E000E0B6E000E61
:104410000C6E000E0D6E0BEC23F0020E12000EC09F
:1044200005F00FC006F0000E086E020E076EBDEC20
:1044300022F0000E0A6E000E0B6E000E0C6E000EC7
:104440000D6E0BEC23F0040E12000EC005F00FC031
:1044500006F0000E086E020E076EBDEC22F0000E94
:104460000A6E000E0B6E000E0C6E000E0D6E0BEC45
:1044700023F0020E12000EC005F00FC006F0000E71
:10448000086E010E076EBDEC22F0000E0A6E000EE3
:104490000B6E000E0C6E000E0D6E0BEC23F0020E78
:1044A00012000EC005F00FC006F0000E086E010EDF
:1044B000076EBDEC22F0000E0A6E000E0B6E000EB1
:1044C0000C6E000E0D6E0BEC23F0040E12000EC0ED
:1044D00005F00FC006F0000E086E020E076EBDEC70
:1044E00022F0000E0A6E000E0B6E000E0C6E000E17
:1044F0000D6E0BEC23F0040E1200010E056E01018F
:1045000023B385EF22F087EF22F091EF22F023957D
:104510001C69C6EC23F0C2EC23F0C4EC23F022C1EA
:1045200005F005501200240E5824D96EDA6A010EE7
:10453000DA22AECFDFFF582A070E5864A2EF22F02E
:10454000A4EF22F0A6EF22F0000E586E0001F32B2C
:104550001200CA0E0001CE6F000ECF6F000EC06FAA
:10456000000EC16FC8C0C2F0C9C0C3F0CE0EC46F88
:10457000000EC56F94EC1FF01200010123A7C3EFDA
:1045800022F0C5EF22F0CEEF22F005C01DF106C0EB
:104590001EF107C01FF108C020F123971200C6BA10
:1045A000D4EF22F0D6EF22F0DFEF22F0000EC76E3C
:1045B000080EC66E000EC56E770EC86EC68A120053
:1045C000700ED36E000ED26E800E9B6E000EB56E16
:1045D000D2AEEDEF22F0EFEF22F0E8EF22F0120082
:1045E000F6EF22F036EC23F062EC1FF0010123B36A
:1045F000FCEF22F0FEEF22F0F2EF22F012000AC0F0
:1046000005F00BC006F00CC007F00DC008F0020E5C
:104610007DEC1EF012000AC005F00BC006F00CC0C5
:1046200007F00DC008F0000E7DEC1EF01200A2ECA9
:1046300023F02CEC23F076EC21F0E0EC22F0BAEC45
:104640001EF01200C5BC27EF23F02AEF23F0010E65
:104650002BEF23F0000E1200000EC76E080EC66E80
:10466000000EC56E770EC86EC69A12009EA63BEF6E
:1046700023F03DEF23F036EF23F0120001012381F8
:104680001C511C259EEC23F0030E12000101238116
:10469000D8801C359EEC23F0050E120001012393F7
:1046A000000E226F0E0E120001012391B6EC23F0D2
:1046B000040E120001012393000E226F0E0E120051
:1046C000066E0650F3EC1FF0120005C0F0F006C0B5
:1046D000F1F0120005C0EEF006C0EFF0120005C0C8
:1046E000EAF006C0EBF0120005C0ECF006C0EDF0F9
:1046F000120005C0E8F006C0E9F01200000ED3EC8D
:1047000020F01200A9EC23F0090E1200A9EC23F00E
:104710000A0E1200A6EC23F0050E1200BCEC23F0EA
:10472000000E1200BEEC23F0010E1200BEEC23F0CE
:10473000020E1200BEEC23F0010E1200056E05C041
:10474000C9FF1200D08E9F8A9F881200C59AC58823
:104750001200C58AC5881200AB98AB88120093EC92
:1047600022F012009E861200C9501200C586120067
:10477000050E1200010E1200C5841200C58212003F
:10478000C58012009D961200C69A12009E961200D5
:044790008408120087
:020000040020DA
:08000000FFFFFFFFFFFFFFFF00
:020000040030CA
:0E00000003285F3CFFD381FF0FC00FE00F40CD
:00000001FF
